{
  "_format": "hh-sol-artifact-1",
  "contractName": "Democracy",
  "sourceName": "contracts/Democracy.sol",
  "abi": [
    {
      "anonymous": false,
      "inputs": [
        {
          "indexed": false,
          "internalType": "string",
          "name": "name",
          "type": "string"
        },
        {
          "indexed": false,
          "internalType": "address",
          "name": "candidateAddress",
          "type": "address"
        }
      ],
      "name": "CandidateRegistered",
      "type": "event"
    },
    {
      "inputs": [
        {
          "internalType": "uint256",
          "name": "",
          "type": "uint256"
        }
      ],
      "name": "candidateList",
      "outputs": [
        {
          "internalType": "string",
          "name": "name",
          "type": "string"
        },
        {
          "internalType": "address",
          "name": "candidateAddress",
          "type": "address"
        },
        {
          "internalType": "uint256",
          "name": "votes",
          "type": "uint256"
        }
      ],
      "stateMutability": "view",
      "type": "function"
    },
    {
      "inputs": [
        {
          "internalType": "address",
          "name": "",
          "type": "address"
        }
      ],
      "name": "candidates",
      "outputs": [
        {
          "internalType": "string",
          "name": "name",
          "type": "string"
        },
        {
          "internalType": "address",
          "name": "candidateAddress",
          "type": "address"
        },
        {
          "internalType": "uint256",
          "name": "votes",
          "type": "uint256"
        }
      ],
      "stateMutability": "view",
      "type": "function"
    },
    {
      "inputs": [],
      "name": "destroy",
      "outputs": [],
      "stateMutability": "nonpayable",
      "type": "function"
    },
    {
      "inputs": [],
      "name": "getCandidates",
      "outputs": [
        {
          "components": [
            {
              "internalType": "string",
              "name": "name",
              "type": "string"
            },
            {
              "internalType": "address",
              "name": "candidateAddress",
              "type": "address"
            },
            {
              "internalType": "uint256",
              "name": "votes",
              "type": "uint256"
            }
          ],
          "internalType": "struct Democracy.Candidate[]",
          "name": "",
          "type": "tuple[]"
        }
      ],
      "stateMutability": "view",
      "type": "function"
    },
    {
      "inputs": [
        {
          "internalType": "address",
          "name": "",
          "type": "address"
        }
      ],
      "name": "hasRegistered",
      "outputs": [
        {
          "internalType": "bool",
          "name": "",
          "type": "bool"
        }
      ],
      "stateMutability": "view",
      "type": "function"
    },
    {
      "inputs": [],
      "name": "isDestroyed",
      "outputs": [
        {
          "internalType": "bool",
          "name": "",
          "type": "bool"
        }
      ],
      "stateMutability": "view",
      "type": "function"
    },
    {
      "inputs": [
        {
          "internalType": "string",
          "name": "",
          "type": "string"
        }
      ],
      "name": "isNameTaken",
      "outputs": [
        {
          "internalType": "bool",
          "name": "",
          "type": "bool"
        }
      ],
      "stateMutability": "view",
      "type": "function"
    },
    {
      "inputs": [
        {
          "internalType": "string",
          "name": "_name",
          "type": "string"
        }
      ],
      "name": "registerAsCandidate",
      "outputs": [],
      "stateMutability": "nonpayable",
      "type": "function"
    },
    {
      "stateMutability": "payable",
      "type": "receive"
    }
  ],
  "bytecode": "0x608060405260008060146101000a81548160ff021916908315150217905550348015602957600080fd5b50336000806101000a81548173ffffffffffffffffffffffffffffffffffffffff021916908373ffffffffffffffffffffffffffffffffffffffff16021790555061169c806100796000396000f3fe60806040526004361061007f5760003560e01c8063a6151a841161004e578063a6151a8414610149578063b13c744b14610174578063b3da4e34146101b3578063b52087c1146101f057610086565b806306a49fce1461008b57806383197ef0146100b65780638ab66a90146100cd578063a0d035261461010c57610086565b3661008657005b600080fd5b34801561009757600080fd5b506100a0610219565b6040516100ad9190610ccf565b60405180910390f35b3480156100c257600080fd5b506100cb61036a565b005b3480156100d957600080fd5b506100f460048036038101906100ef9190610d31565b610539565b60405161010393929190610dc6565b60405180910390f35b34801561011857600080fd5b50610133600480360381019061012e9190610d31565b61060b565b6040516101409190610e1f565b60405180910390f35b34801561015557600080fd5b5061015e61062b565b60405161016b9190610e1f565b60405180910390f35b34801561018057600080fd5b5061019b60048036038101906101969190610e66565b61063e565b6040516101aa93929190610dc6565b60405180910390f35b3480156101bf57600080fd5b506101da60048036038101906101d59190610fc8565b610720565b6040516101e79190610e1f565b60405180910390f35b3480156101fc57600080fd5b5061021760048036038101906102129190610fc8565b610756565b005b60606004805480602002602001604051908101604052809291908181526020016000905b82821015610361578382906000526020600020906003020160405180606001604052908160008201805461027090611040565b80601f016020809104026020016040519081016040528092919081815260200182805461029c90611040565b80156102e95780601f106102be576101008083540402835291602001916102e9565b820191906000526020600020905b8154815290600101906020018083116102cc57829003601f168201915b505050505081526020016001820160009054906101000a900473ffffffffffffffffffffffffffffffffffffffff1673ffffffffffffffffffffffffffffffffffffffff1673ffffffffffffffffffffffffffffffffffffffff1681526020016002820154815250508152602001906001019061023d565b50505050905090565b60008054906101000a900473ffffffffffffffffffffffffffffffffffffffff1673ffffffffffffffffffffffffffffffffffffffff163373ffffffffffffffffffffffffffffffffffffffff16146103f8576040517f08c379a00000000000000000000000000000000000000000000000000000000081526004016103ef906110bd565b60405180910390fd5b600060149054906101000a900460ff1615610448576040517f08c379a000000000000000000000000000000000000000000000000000000000815260040161043f90611129565b60405180910390fd5b600047905060008060009054906101000a900473ffffffffffffffffffffffffffffffffffffffff1673ffffffffffffffffffffffffffffffffffffffff16826040516104949061117a565b60006040518083038185875af1925050503d80600081146104d1576040519150601f19603f3d011682016040523d82523d6000602084013e6104d6565b606091505b505090508061051a576040517f08c379a000000000000000000000000000000000000000000000000000000000815260040161051190611201565b60405180910390fd5b6001600060146101000a81548160ff0219169083151502179055505050565b600360205280600052604060002060009150905080600001805461055c90611040565b80601f016020809104026020016040519081016040528092919081815260200182805461058890611040565b80156105d55780601f106105aa576101008083540402835291602001916105d5565b820191906000526020600020905b8154815290600101906020018083116105b857829003601f168201915b5050505050908060010160009054906101000a900473ffffffffffffffffffffffffffffffffffffffff16908060020154905083565b60016020528060005260406000206000915054906101000a900460ff1681565b600060149054906101000a900460ff1681565b6004818154811061064e57600080fd5b906000526020600020906003020160009150905080600001805461067190611040565b80601f016020809104026020016040519081016040528092919081815260200182805461069d90611040565b80156106ea5780601f106106bf576101008083540402835291602001916106ea565b820191906000526020600020905b8154815290600101906020018083116106cd57829003601f168201915b5050505050908060010160009054906101000a900473ffffffffffffffffffffffffffffffffffffffff16908060020154905083565b6002818051602081018201805184825260208301602085012081835280955050505050506000915054906101000a900460ff1681565b600081511161079a576040517f08c379a00000000000000000000000000000000000000000000000000000000081526004016107919061126d565b60405180910390fd5b600160003373ffffffffffffffffffffffffffffffffffffffff1673ffffffffffffffffffffffffffffffffffffffff16815260200190815260200160002060009054906101000a900460ff1615610827576040517f08c379a000000000000000000000000000000000000000000000000000000000815260040161081e906112d9565b60405180910390fd5b6002816040516108379190611335565b908152602001604051809103902060009054906101000a900460ff1615610893576040517f08c379a000000000000000000000000000000000000000000000000000000000815260040161088a90611398565b60405180910390fd5b600060405180606001604052808381526020013373ffffffffffffffffffffffffffffffffffffffff1681526020016000815250905080600360003373ffffffffffffffffffffffffffffffffffffffff1673ffffffffffffffffffffffffffffffffffffffff168152602001908152602001600020600082015181600001908161091e9190611564565b5060208201518160010160006101000a81548173ffffffffffffffffffffffffffffffffffffffff021916908373ffffffffffffffffffffffffffffffffffffffff16021790555060408201518160020155905050600481908060018154018082558091505060019003906000526020600020906003020160009091909190915060008201518160000190816109b49190611564565b5060208201518160010160006101000a81548173ffffffffffffffffffffffffffffffffffffffff021916908373ffffffffffffffffffffffffffffffffffffffff16021790555060408201518160020155505060018060003373ffffffffffffffffffffffffffffffffffffffff1673ffffffffffffffffffffffffffffffffffffffff16815260200190815260200160002060006101000a81548160ff0219169083151502179055506001600283604051610a719190611335565b908152602001604051809103902060006101000a81548160ff0219169083151502179055507fd13c0f94040a8ce9625a1aaefda862d7aa4723f25aab59446f073da43dd822938233604051610ac7929190611636565b60405180910390a15050565b600081519050919050565b600082825260208201905092915050565b6000819050602082019050919050565b600081519050919050565b600082825260208201905092915050565b60005b83811015610b39578082015181840152602081019050610b1e565b60008484015250505050565b6000601f19601f8301169050919050565b6000610b6182610aff565b610b6b8185610b0a565b9350610b7b818560208601610b1b565b610b8481610b45565b840191505092915050565b600073ffffffffffffffffffffffffffffffffffffffff82169050919050565b6000610bba82610b8f565b9050919050565b610bca81610baf565b82525050565b6000819050919050565b610be381610bd0565b82525050565b60006060830160008301518482036000860152610c068282610b56565b9150506020830151610c1b6020860182610bc1565b506040830151610c2e6040860182610bda565b508091505092915050565b6000610c458383610be9565b905092915050565b6000602082019050919050565b6000610c6582610ad3565b610c6f8185610ade565b935083602082028501610c8185610aef565b8060005b85811015610cbd5784840389528151610c9e8582610c39565b9450610ca983610c4d565b925060208a01995050600181019050610c85565b50829750879550505050505092915050565b60006020820190508181036000830152610ce98184610c5a565b905092915050565b6000604051905090565b600080fd5b600080fd5b610d0e81610baf565b8114610d1957600080fd5b50565b600081359050610d2b81610d05565b92915050565b600060208284031215610d4757610d46610cfb565b5b6000610d5584828501610d1c565b91505092915050565b600082825260208201905092915050565b6000610d7a82610aff565b610d848185610d5e565b9350610d94818560208601610b1b565b610d9d81610b45565b840191505092915050565b610db181610baf565b82525050565b610dc081610bd0565b82525050565b60006060820190508181036000830152610de08186610d6f565b9050610def6020830185610da8565b610dfc6040830184610db7565b949350505050565b60008115159050919050565b610e1981610e04565b82525050565b6000602082019050610e346000830184610e10565b92915050565b610e4381610bd0565b8114610e4e57600080fd5b50565b600081359050610e6081610e3a565b92915050565b600060208284031215610e7c57610e7b610cfb565b5b6000610e8a84828501610e51565b91505092915050565b600080fd5b600080fd5b7f4e487b7100000000000000000000000000000000000000000000000000000000600052604160045260246000fd5b610ed582610b45565b810181811067ffffffffffffffff82111715610ef457610ef3610e9d565b5b80604052505050565b6000610f07610cf1565b9050610f138282610ecc565b919050565b600067ffffffffffffffff821115610f3357610f32610e9d565b5b610f3c82610b45565b9050602081019050919050565b82818337600083830152505050565b6000610f6b610f6684610f18565b610efd565b905082815260208101848484011115610f8757610f86610e98565b5b610f92848285610f49565b509392505050565b600082601f830112610faf57610fae610e93565b5b8135610fbf848260208601610f58565b91505092915050565b600060208284031215610fde57610fdd610cfb565b5b600082013567ffffffffffffffff811115610ffc57610ffb610d00565b5b61100884828501610f9a565b91505092915050565b7f4e487b7100000000000000000000000000000000000000000000000000000000600052602260045260246000fd5b6000600282049050600182168061105857607f821691505b60208210810361106b5761106a611011565b5b50919050565b7f43616c6c6572206973206e6f7420746865206f776e6572000000000000000000600082015250565b60006110a7601783610d5e565b91506110b282611071565b602082019050919050565b600060208201905081810360008301526110d68161109a565b9050919050565b7f436f6e747261637420697320616c72656164792064657374726f796564000000600082015250565b6000611113601d83610d5e565b915061111e826110dd565b602082019050919050565b6000602082019050818103600083015261114281611106565b9050919050565b600081905092915050565b50565b6000611164600083611149565b915061116f82611154565b600082019050919050565b600061118582611157565b9150819050919050565b7f4574686572207472616e7366657220746f206f776e6572206661696c6564206f60008201527f6e2073656c6664657374727563742e0000000000000000000000000000000000602082015250565b60006111eb602f83610d5e565b91506111f68261118f565b604082019050919050565b6000602082019050818103600083015261121a816111de565b9050919050565b7f4e616d652063616e6e6f7420626520656d707479000000000000000000000000600082015250565b6000611257601483610d5e565b915061126282611221565b602082019050919050565b600060208201905081810360008301526112868161124a565b9050919050565b7f4164647265737320616c72656164792072656769737465726564000000000000600082015250565b60006112c3601a83610d5e565b91506112ce8261128d565b602082019050919050565b600060208201905081810360008301526112f2816112b6565b9050919050565b600081905092915050565b600061130f82610aff565b61131981856112f9565b9350611329818560208601610b1b565b80840191505092915050565b60006113418284611304565b915081905092915050565b7f4e616d6520616c72656164792074616b656e0000000000000000000000000000600082015250565b6000611382601283610d5e565b915061138d8261134c565b602082019050919050565b600060208201905081810360008301526113b181611375565b9050919050565b60008190508160005260206000209050919050565b60006020601f8301049050919050565b600082821b905092915050565b60006008830261141a7fffffffffffffffffffffffffffffffffffffffffffffffffffffffffffffffff826113dd565b61142486836113dd565b95508019841693508086168417925050509392505050565b6000819050919050565b600061146161145c61145784610bd0565b61143c565b610bd0565b9050919050565b6000819050919050565b61147b83611446565b61148f61148782611468565b8484546113ea565b825550505050565b600090565b6114a4611497565b6114af818484611472565b505050565b5b818110156114d3576114c860008261149c565b6001810190506114b5565b5050565b601f821115611518576114e9816113b8565b6114f2846113cd565b81016020851015611501578190505b61151561150d856113cd565b8301826114b4565b50505b505050565b600082821c905092915050565b600061153b6000198460080261151d565b1980831691505092915050565b6000611554838361152a565b9150826002028217905092915050565b61156d82610aff565b67ffffffffffffffff81111561158657611585610e9d565b5b6115908254611040565b61159b8282856114d7565b600060209050601f8311600181146115ce57600084156115bc578287015190505b6115c68582611548565b86555061162e565b601f1984166115dc866113b8565b60005b82811015611604578489015182556001820191506020850194506020810190506115df565b86831015611621578489015161161d601f89168261152a565b8355505b6001600288020188555050505b505050505050565b600060408201905081810360008301526116508185610d6f565b905061165f6020830184610da8565b939250505056fea2646970667358221220c668a588d0958d1d8af981b8053ba2fba7878038db238c1a8d4a88c9053d1e6e64736f6c634300081c0033",
  "linkReferences": {},
  "deployedLinkReferences": {}
}