{
  "_format": "hh-sol-artifact-1",
  "contractName": "Destructable",
  "sourceName": "contracts/Democracy.sol",
  "abi": [
    {
      "inputs": [],
      "stateMutability": "nonpayable",
      "type": "constructor"
    },
    {
      "inputs": [],
      "name": "destroy",
      "outputs": [],
      "stateMutability": "nonpayable",
      "type": "function"
    },
    {
      "inputs": [],
      "name": "isDestroyed",
      "outputs": [
        {
          "internalType": "bool",
          "name": "",
          "type": "bool"
        }
      ],
      "stateMutability": "view",
      "type": "function"
    },
    {
      "stateMutability": "payable",
      "type": "receive"
    }
  ],
  "bytecode": "0x608060405260008060146101000a81548160ff021916908315150217905550348015602957600080fd5b50336000806101000a81548173ffffffffffffffffffffffffffffffffffffffff021916908373ffffffffffffffffffffffffffffffffffffffff16021790555061048a806100796000396000f3fe60806040526004361061002d5760003560e01c806383197ef014610039578063a6151a841461005057610034565b3661003457005b600080fd5b34801561004557600080fd5b5061004e61007b565b005b34801561005c57600080fd5b5061006561024a565b6040516100729190610278565b60405180910390f35b60008054906101000a900473ffffffffffffffffffffffffffffffffffffffff1673ffffffffffffffffffffffffffffffffffffffff163373ffffffffffffffffffffffffffffffffffffffff1614610109576040517f08c379a0000000000000000000000000000000000000000000000000000000008152600401610100906102f0565b60405180910390fd5b600060149054906101000a900460ff1615610159576040517f08c379a00000000000000000000000000000000000000000000000000000000081526004016101509061035c565b60405180910390fd5b600047905060008060009054906101000a900473ffffffffffffffffffffffffffffffffffffffff1673ffffffffffffffffffffffffffffffffffffffff16826040516101a5906103ad565b60006040518083038185875af1925050503d80600081146101e2576040519150601f19603f3d011682016040523d82523d6000602084013e6101e7565b606091505b505090508061022b576040517f08c379a000000000000000000000000000000000000000000000000000000000815260040161022290610434565b60405180910390fd5b6001600060146101000a81548160ff0219169083151502179055505050565b600060149054906101000a900460ff1681565b60008115159050919050565b6102728161025d565b82525050565b600060208201905061028d6000830184610269565b92915050565b600082825260208201905092915050565b7f43616c6c6572206973206e6f7420746865206f776e6572000000000000000000600082015250565b60006102da601783610293565b91506102e5826102a4565b602082019050919050565b60006020820190508181036000830152610309816102cd565b9050919050565b7f436f6e747261637420697320616c72656164792064657374726f796564000000600082015250565b6000610346601d83610293565b915061035182610310565b602082019050919050565b6000602082019050818103600083015261037581610339565b9050919050565b600081905092915050565b50565b600061039760008361037c565b91506103a282610387565b600082019050919050565b60006103b88261038a565b9150819050919050565b7f4574686572207472616e7366657220746f206f776e6572206661696c6564206f60008201527f6e2073656c6664657374727563742e0000000000000000000000000000000000602082015250565b600061041e602f83610293565b9150610429826103c2565b604082019050919050565b6000602082019050818103600083015261044d81610411565b905091905056fea26469706673582212209d0bf9a97be661df75e9a20ba34f79fe526f5a3aad9874217f03be8680d1442664736f6c634300081c0033",
  "linkReferences": {},
  "deployedLinkReferences": {}
}